{
  "contractName": "AgriNFT",
  "abi": [
    {
      "inputs": [],
      "stateMutability": "nonpayable",
      "type": "constructor"
    },
    {
      "inputs": [
        {
          "internalType": "address",
          "name": "sender",
          "type": "address"
        },
        {
          "internalType": "uint256",
          "name": "tokenId",
          "type": "uint256"
        },
        {
          "internalType": "address",
          "name": "owner",
          "type": "address"
        }
      ],
      "name": "ERC721IncorrectOwner",
      "type": "error"
    },
    {
      "inputs": [
        {
          "internalType": "address",
          "name": "operator",
          "type": "address"
        },
        {
          "internalType": "uint256",
          "name": "tokenId",
          "type": "uint256"
        }
      ],
      "name": "ERC721InsufficientApproval",
      "type": "error"
    },
    {
      "inputs": [
        {
          "internalType": "address",
          "name": "approver",
          "type": "address"
        }
      ],
      "name": "ERC721InvalidApprover",
      "type": "error"
    },
    {
      "inputs": [
        {
          "internalType": "address",
          "name": "operator",
          "type": "address"
        }
      ],
      "name": "ERC721InvalidOperator",
      "type": "error"
    },
    {
      "inputs": [
        {
          "internalType": "address",
          "name": "owner",
          "type": "address"
        }
      ],
      "name": "ERC721InvalidOwner",
      "type": "error"
    },
    {
      "inputs": [
        {
          "internalType": "address",
          "name": "receiver",
          "type": "address"
        }
      ],
      "name": "ERC721InvalidReceiver",
      "type": "error"
    },
    {
      "inputs": [
        {
          "internalType": "address",
          "name": "sender",
          "type": "address"
        }
      ],
      "name": "ERC721InvalidSender",
      "type": "error"
    },
    {
      "inputs": [
        {
          "internalType": "uint256",
          "name": "tokenId",
          "type": "uint256"
        }
      ],
      "name": "ERC721NonexistentToken",
      "type": "error"
    },
    {
      "inputs": [
        {
          "internalType": "address",
          "name": "owner",
          "type": "address"
        }
      ],
      "name": "OwnableInvalidOwner",
      "type": "error"
    },
    {
      "inputs": [
        {
          "internalType": "address",
          "name": "account",
          "type": "address"
        }
      ],
      "name": "OwnableUnauthorizedAccount",
      "type": "error"
    },
    {
      "anonymous": false,
      "inputs": [
        {
          "indexed": true,
          "internalType": "address",
          "name": "owner",
          "type": "address"
        },
        {
          "indexed": true,
          "internalType": "address",
          "name": "approved",
          "type": "address"
        },
        {
          "indexed": true,
          "internalType": "uint256",
          "name": "tokenId",
          "type": "uint256"
        }
      ],
      "name": "Approval",
      "type": "event"
    },
    {
      "anonymous": false,
      "inputs": [
        {
          "indexed": true,
          "internalType": "address",
          "name": "owner",
          "type": "address"
        },
        {
          "indexed": true,
          "internalType": "address",
          "name": "operator",
          "type": "address"
        },
        {
          "indexed": false,
          "internalType": "bool",
          "name": "approved",
          "type": "bool"
        }
      ],
      "name": "ApprovalForAll",
      "type": "event"
    },
    {
      "anonymous": false,
      "inputs": [
        {
          "indexed": true,
          "internalType": "address",
          "name": "previousOwner",
          "type": "address"
        },
        {
          "indexed": true,
          "internalType": "address",
          "name": "newOwner",
          "type": "address"
        }
      ],
      "name": "OwnershipTransferred",
      "type": "event"
    },
    {
      "anonymous": false,
      "inputs": [
        {
          "indexed": true,
          "internalType": "address",
          "name": "from",
          "type": "address"
        },
        {
          "indexed": true,
          "internalType": "address",
          "name": "to",
          "type": "address"
        },
        {
          "indexed": true,
          "internalType": "uint256",
          "name": "tokenId",
          "type": "uint256"
        }
      ],
      "name": "Transfer",
      "type": "event"
    },
    {
      "inputs": [
        {
          "internalType": "address",
          "name": "to",
          "type": "address"
        },
        {
          "internalType": "uint256",
          "name": "tokenId",
          "type": "uint256"
        }
      ],
      "name": "approve",
      "outputs": [],
      "stateMutability": "nonpayable",
      "type": "function"
    },
    {
      "inputs": [
        {
          "internalType": "address",
          "name": "owner",
          "type": "address"
        }
      ],
      "name": "balanceOf",
      "outputs": [
        {
          "internalType": "uint256",
          "name": "",
          "type": "uint256"
        }
      ],
      "stateMutability": "view",
      "type": "function"
    },
    {
      "inputs": [],
      "name": "farmerCount",
      "outputs": [
        {
          "internalType": "uint256",
          "name": "",
          "type": "uint256"
        }
      ],
      "stateMutability": "view",
      "type": "function"
    },
    {
      "inputs": [
        {
          "internalType": "uint256",
          "name": "",
          "type": "uint256"
        }
      ],
      "name": "farmers",
      "outputs": [
        {
          "internalType": "uint256",
          "name": "id",
          "type": "uint256"
        },
        {
          "internalType": "address",
          "name": "addr",
          "type": "address"
        },
        {
          "internalType": "string",
          "name": "name",
          "type": "string"
        },
        {
          "internalType": "string",
          "name": "location",
          "type": "string"
        }
      ],
      "stateMutability": "view",
      "type": "function"
    },
    {
      "inputs": [
        {
          "internalType": "uint256",
          "name": "tokenId",
          "type": "uint256"
        }
      ],
      "name": "getApproved",
      "outputs": [
        {
          "internalType": "address",
          "name": "",
          "type": "address"
        }
      ],
      "stateMutability": "view",
      "type": "function"
    },
    {
      "inputs": [
        {
          "internalType": "address",
          "name": "owner",
          "type": "address"
        },
        {
          "internalType": "address",
          "name": "operator",
          "type": "address"
        }
      ],
      "name": "isApprovedForAll",
      "outputs": [
        {
          "internalType": "bool",
          "name": "",
          "type": "bool"
        }
      ],
      "stateMutability": "view",
      "type": "function"
    },
    {
      "inputs": [],
      "name": "lotCount",
      "outputs": [
        {
          "internalType": "uint256",
          "name": "",
          "type": "uint256"
        }
      ],
      "stateMutability": "view",
      "type": "function"
    },
    {
      "inputs": [
        {
          "internalType": "uint256",
          "name": "",
          "type": "uint256"
        }
      ],
      "name": "lots",
      "outputs": [
        {
          "internalType": "uint256",
          "name": "id",
          "type": "uint256"
        },
        {
          "internalType": "uint256",
          "name": "farmerId",
          "type": "uint256"
        },
        {
          "internalType": "string",
          "name": "cropType",
          "type": "string"
        },
        {
          "internalType": "uint256",
          "name": "quantity",
          "type": "uint256"
        },
        {
          "internalType": "string",
          "name": "location",
          "type": "string"
        },
        {
          "internalType": "uint256",
          "name": "price",
          "type": "uint256"
        },
        {
          "internalType": "bool",
          "name": "isSold",
          "type": "bool"
        },
        {
          "internalType": "string",
          "name": "grade",
          "type": "string"
        },
        {
          "internalType": "string",
          "name": "imgURL",
          "type": "string"
        }
      ],
      "stateMutability": "view",
      "type": "function"
    },
    {
      "inputs": [],
      "name": "name",
      "outputs": [
        {
          "internalType": "string",
          "name": "",
          "type": "string"
        }
      ],
      "stateMutability": "view",
      "type": "function"
    },
    {
      "inputs": [],
      "name": "owner",
      "outputs": [
        {
          "internalType": "address",
          "name": "",
          "type": "address"
        }
      ],
      "stateMutability": "view",
      "type": "function"
    },
    {
      "inputs": [
        {
          "internalType": "uint256",
          "name": "tokenId",
          "type": "uint256"
        }
      ],
      "name": "ownerOf",
      "outputs": [
        {
          "internalType": "address",
          "name": "",
          "type": "address"
        }
      ],
      "stateMutability": "view",
      "type": "function"
    },
    {
      "inputs": [],
      "name": "renounceOwnership",
      "outputs": [],
      "stateMutability": "nonpayable",
      "type": "function"
    },
    {
      "inputs": [
        {
          "internalType": "address",
          "name": "from",
          "type": "address"
        },
        {
          "internalType": "address",
          "name": "to",
          "type": "address"
        },
        {
          "internalType": "uint256",
          "name": "tokenId",
          "type": "uint256"
        }
      ],
      "name": "safeTransferFrom",
      "outputs": [],
      "stateMutability": "nonpayable",
      "type": "function"
    },
    {
      "inputs": [
        {
          "internalType": "address",
          "name": "from",
          "type": "address"
        },
        {
          "internalType": "address",
          "name": "to",
          "type": "address"
        },
        {
          "internalType": "uint256",
          "name": "tokenId",
          "type": "uint256"
        },
        {
          "internalType": "bytes",
          "name": "data",
          "type": "bytes"
        }
      ],
      "name": "safeTransferFrom",
      "outputs": [],
      "stateMutability": "nonpayable",
      "type": "function"
    },
    {
      "inputs": [
        {
          "internalType": "address",
          "name": "operator",
          "type": "address"
        },
        {
          "internalType": "bool",
          "name": "approved",
          "type": "bool"
        }
      ],
      "name": "setApprovalForAll",
      "outputs": [],
      "stateMutability": "nonpayable",
      "type": "function"
    },
    {
      "inputs": [
        {
          "internalType": "bytes4",
          "name": "interfaceId",
          "type": "bytes4"
        }
      ],
      "name": "supportsInterface",
      "outputs": [
        {
          "internalType": "bool",
          "name": "",
          "type": "bool"
        }
      ],
      "stateMutability": "view",
      "type": "function"
    },
    {
      "inputs": [],
      "name": "symbol",
      "outputs": [
        {
          "internalType": "string",
          "name": "",
          "type": "string"
        }
      ],
      "stateMutability": "view",
      "type": "function"
    },
    {
      "inputs": [
        {
          "internalType": "uint256",
          "name": "tokenId",
          "type": "uint256"
        }
      ],
      "name": "tokenURI",
      "outputs": [
        {
          "internalType": "string",
          "name": "",
          "type": "string"
        }
      ],
      "stateMutability": "view",
      "type": "function"
    },
    {
      "inputs": [
        {
          "internalType": "address",
          "name": "from",
          "type": "address"
        },
        {
          "internalType": "address",
          "name": "to",
          "type": "address"
        },
        {
          "internalType": "uint256",
          "name": "tokenId",
          "type": "uint256"
        }
      ],
      "name": "transferFrom",
      "outputs": [],
      "stateMutability": "nonpayable",
      "type": "function"
    },
    {
      "inputs": [
        {
          "internalType": "address",
          "name": "newOwner",
          "type": "address"
        }
      ],
      "name": "transferOwnership",
      "outputs": [],
      "stateMutability": "nonpayable",
      "type": "function"
    },
    {
      "inputs": [],
      "name": "transportationCount",
      "outputs": [
        {
          "internalType": "uint256",
          "name": "",
          "type": "uint256"
        }
      ],
      "stateMutability": "view",
      "type": "function"
    },
    {
      "inputs": [
        {
          "internalType": "uint256",
          "name": "",
          "type": "uint256"
        }
      ],
      "name": "transportations",
      "outputs": [
        {
          "internalType": "uint256",
          "name": "id",
          "type": "uint256"
        },
        {
          "internalType": "uint256",
          "name": "lotId",
          "type": "uint256"
        },
        {
          "internalType": "address",
          "name": "transporter",
          "type": "address"
        },
        {
          "internalType": "string",
          "name": "transportDetails",
          "type": "string"
        }
      ],
      "stateMutability": "view",
      "type": "function"
    },
    {
      "inputs": [
        {
          "internalType": "address",
          "name": "_addr",
          "type": "address"
        },
        {
          "internalType": "string",
          "name": "_name",
          "type": "string"
        },
        {
          "internalType": "string",
          "name": "_location",
          "type": "string"
        }
      ],
      "name": "addFarmer",
      "outputs": [],
      "stateMutability": "nonpayable",
      "type": "function"
    },
    {
      "inputs": [
        {
          "internalType": "uint256",
          "name": "_farmerId",
          "type": "uint256"
        },
        {
          "internalType": "string",
          "name": "_cropType",
          "type": "string"
        },
        {
          "internalType": "uint256",
          "name": "_quantity",
          "type": "uint256"
        },
        {
          "internalType": "string",
          "name": "_location",
          "type": "string"
        },
        {
          "internalType": "uint256",
          "name": "_price",
          "type": "uint256"
        },
        {
          "internalType": "string",
          "name": "_grade",
          "type": "string"
        },
        {
          "internalType": "string",
          "name": "_imgURL",
          "type": "string"
        }
      ],
      "name": "addLot",
      "outputs": [],
      "stateMutability": "nonpayable",
      "type": "function"
    },
    {
      "inputs": [
        {
          "internalType": "uint256",
          "name": "_lotId",
          "type": "uint256"
        },
        {
          "internalType": "address",
          "name": "_transporter",
          "type": "address"
        },
        {
          "internalType": "string",
          "name": "_transportDetails",
          "type": "string"
        }
      ],
      "name": "addTransportation",
      "outputs": [],
      "stateMutability": "nonpayable",
      "type": "function"
    },
    {
      "inputs": [
        {
          "internalType": "uint256",
          "name": "_lotId",
          "type": "uint256"
        }
      ],
      "name": "buyLot",
      "outputs": [],
      "stateMutability": "payable",
      "type": "function"
    },
    {
      "inputs": [
        {
          "internalType": "uint256",
          "name": "_lotId",
          "type": "uint256"
        }
      ],
      "name": "getLot",
      "outputs": [
        {
          "internalType": "uint256",
          "name": "",
          "type": "uint256"
        },
        {
          "internalType": "uint256",
          "name": "",
          "type": "uint256"
        },
        {
          "internalType": "string",
          "name": "",
          "type": "string"
        },
        {
          "internalType": "uint256",
          "name": "",
          "type": "uint256"
        },
        {
          "internalType": "string",
          "name": "",
          "type": "string"
        },
        {
          "internalType": "uint256",
          "name": "",
          "type": "uint256"
        },
        {
          "internalType": "bool",
          "name": "",
          "type": "bool"
        },
        {
          "internalType": "string",
          "name": "",
          "type": "string"
        }
      ],
      "stateMutability": "view",
      "type": "function"
    },
    {
      "inputs": [
        {
          "internalType": "uint256",
          "name": "_transportationId",
          "type": "uint256"
        }
      ],
      "name": "getTransportation",
      "outputs": [
        {
          "internalType": "uint256",
          "name": "",
          "type": "uint256"
        },
        {
          "internalType": "uint256",
          "name": "",
          "type": "uint256"
        },
        {
          "internalType": "address",
          "name": "",
          "type": "address"
        },
        {
          "internalType": "string",
          "name": "",
          "type": "string"
        }
      ],
      "stateMutability": "view",
      "type": "function"
    },
    {
      "inputs": [],
      "name": "getAllLots",
      "outputs": [
        {
          "components": [
            {
              "internalType": "uint256",
              "name": "id",
              "type": "uint256"
            },
            {
              "internalType": "uint256",
              "name": "farmerId",
              "type": "uint256"
            },
            {
              "internalType": "string",
              "name": "cropType",
              "type": "string"
            },
            {
              "internalType": "uint256",
              "name": "quantity",
              "type": "uint256"
            },
            {
              "internalType": "string",
              "name": "location",
              "type": "string"
            },
            {
              "internalType": "uint256",
              "name": "price",
              "type": "uint256"
            },
            {
              "internalType": "bool",
              "name": "isSold",
              "type": "bool"
            },
            {
              "internalType": "string",
              "name": "grade",
              "type": "string"
            },
            {
              "internalType": "string",
              "name": "imgURL",
              "type": "string"
            }
          ],
          "internalType": "struct AgriNFT.Lot[]",
          "name": "",
          "type": "tuple[]"
        }
      ],
      "stateMutability": "view",
      "type": "function"
    }
  ],
  "bytecode": "0x608060405234801562000010575f80fd5b50336040518060400160405280600e81526020017f4167726963756c747572654e46540000000000000000000000000000000000008152506040518060400160405280600581526020017f41474e4654000000000000000000000000000000000000000000000000000000815250815f90816200008e919062000455565b508060019081620000a0919062000455565b5050505f73ffffffffffffffffffffffffffffffffffffffff168173ffffffffffffffffffffffffffffffffffffffff160362000116575f6040517f1e4fbdf70000000000000000000000000000000000000000000000000000000081526004016200010d91906200057c565b60405180910390fd5b62000127816200012e60201b60201c565b5062000597565b5f60065f9054906101000a900473ffffffffffffffffffffffffffffffffffffffff1690508160065f6101000a81548173ffffffffffffffffffffffffffffffffffffffff021916908373ffffffffffffffffffffffffffffffffffffffff1602179055508173ffffffffffffffffffffffffffffffffffffffff168173ffffffffffffffffffffffffffffffffffffffff167f8be0079c531659141344cd1fd0a4f28419497f9722a3daafe3b4186f6b6457e060405160405180910390a35050565b5f81519050919050565b7f4e487b71000000000000000000000000000000000000000000000000000000005f52604160045260245ffd5b7f4e487b71000000000000000000000000000000000000000000000000000000005f52602260045260245ffd5b5f60028204905060018216806200026d57607f821691505b60208210810362000283576200028262000228565b5b50919050565b5f819050815f5260205f209050919050565b5f6020601f8301049050919050565b5f82821b905092915050565b5f60088302620002e77fffffffffffffffffffffffffffffffffffffffffffffffffffffffffffffffff82620002aa565b620002f38683620002aa565b95508019841693508086168417925050509392505050565b5f819050919050565b5f819050919050565b5f6200033d6200033762000331846200030b565b62000314565b6200030b565b9050919050565b5f819050919050565b62000358836200031d565b62000370620003678262000344565b848454620002b6565b825550505050565b5f90565b6200038662000378565b620003938184846200034d565b505050565b5b81811015620003ba57620003ae5f826200037c565b60018101905062000399565b5050565b601f8211156200040957620003d38162000289565b620003de846200029b565b81016020851015620003ee578190505b62000406620003fd856200029b565b83018262000398565b50505b505050565b5f82821c905092915050565b5f6200042b5f19846008026200040e565b1980831691505092915050565b5f6200044583836200041a565b9150826002028217905092915050565b6200046082620001f1565b67ffffffffffffffff8111156200047c576200047b620001fb565b5b62000488825462000255565b62000495828285620003be565b5f60209050601f831160018114620004cb575f8415620004b6578287015190505b620004c2858262000438565b86555062000531565b601f198416620004db8662000289565b5f5b828110156200050457848901518255600182019150602085019450602081019050620004dd565b8683101562000524578489015162000520601f8916826200041a565b8355505b6001600288020188555050505b505050505050565b5f73ffffffffffffffffffffffffffffffffffffffff82169050919050565b5f620005648262000539565b9050919050565b620005768162000558565b82525050565b5f602082019050620005915f8301846200056b565b92915050565b6143e880620005a55f395ff3fe6080604052600436106101c1575f3560e01c80637ae169e9116100f6578063ab995d1211610094578063e985e9c511610063578063e985e9c514610661578063e9bf6b4c1461069d578063f1648e84146106c5578063f2fde38b14610709576101c1565b8063ab995d1214610590578063b88d4fde146105d3578063bd45b397146105fb578063c87b56dd14610625576101c1565b80638e3bea6f116100d05780638e3bea6f146104ec57806395d89b41146105165780639da0024314610540578063a22cb46514610568576101c1565b80637ae169e9146104595780638afdd669146104835780638da5cb5b146104c2576101c1565b806342842e0e1161016357806370a082311161013d57806370a08231146103ac578063715018a6146103e857806372968670146103fe57806374e3e3dc1461043d576101c1565b806342842e0e1461032057806349718924146103485780636352211e14610370576101c1565b8063081812fc1161019f578063081812fc14610255578063095ea7b3146102915780630aeb647e146102b957806323b872dd146102f8576101c1565b806301ffc9a7146101c55780630218f1c91461020157806306fdde031461022b575b5f80fd5b3480156101d0575f80fd5b506101eb60048036038101906101e69190612f8b565b610731565b6040516101f89190612fd0565b60405180910390f35b34801561020c575f80fd5b50610215610812565b6040516102229190613001565b60405180910390f35b348015610236575f80fd5b5061023f610818565b60405161024c91906130a4565b60405180910390f35b348015610260575f80fd5b5061027b600480360381019061027691906130ee565b6108a7565b6040516102889190613158565b60405180910390f35b34801561029c575f80fd5b506102b760048036038101906102b2919061319b565b6108c2565b005b3480156102c4575f80fd5b506102df60048036038101906102da91906130ee565b6108d8565b6040516102ef94939291906131d9565b60405180910390f35b348015610303575f80fd5b5061031e60048036038101906103199190613223565b610a17565b005b34801561032b575f80fd5b5061034660048036038101906103419190613223565b610b16565b005b348015610353575f80fd5b5061036e6004803603810190610369919061339f565b610b35565b005b34801561037b575f80fd5b50610396600480360381019061039191906130ee565b610d78565b6040516103a39190613158565b60405180910390f35b3480156103b7575f80fd5b506103d260048036038101906103cd919061340b565b610d89565b6040516103df9190613001565b60405180910390f35b3480156103f3575f80fd5b506103fc610e3f565b005b348015610409575f80fd5b50610424600480360381019061041f91906130ee565b610e52565b60405161043494939291906131d9565b60405180910390f35b610457600480360381019061045291906130ee565b610f23565b005b348015610464575f80fd5b5061046d6110ee565b60405161047a9190613001565b60405180910390f35b34801561048e575f80fd5b506104a960048036038101906104a491906130ee565b6110f4565b6040516104b99493929190613436565b60405180910390f35b3480156104cd575f80fd5b506104d661124b565b6040516104e39190613158565b60405180910390f35b3480156104f7575f80fd5b50610500611273565b60405161050d919061367f565b60405180910390f35b348015610521575f80fd5b5061052a6115c0565b60405161053791906130a4565b60405180910390f35b34801561054b575f80fd5b506105666004803603810190610561919061369f565b611650565b005b348015610573575f80fd5b5061058e600480360381019061058991906137d6565b611859565b005b34801561059b575f80fd5b506105b660048036038101906105b191906130ee565b61186f565b6040516105ca989796959493929190613814565b60405180910390f35b3480156105de575f80fd5b506105f960048036038101906105f49190613943565b611b5e565b005b348015610606575f80fd5b5061060f611b7b565b60405161061c9190613001565b60405180910390f35b348015610630575f80fd5b5061064b600480360381019061064691906130ee565b611b81565b60405161065891906130a4565b60405180910390f35b34801561066c575f80fd5b50610687600480360381019061068291906139c3565b611be7565b6040516106949190612fd0565b60405180910390f35b3480156106a8575f80fd5b506106c360048036038101906106be9190613a01565b611c75565b005b3480156106d0575f80fd5b506106eb60048036038101906106e691906130ee565b611d62565b60405161070099989796959493929190613a89565b60405180910390f35b348015610714575f80fd5b5061072f600480360381019061072a919061340b565b611fd0565b005b5f7f80ac58cd000000000000000000000000000000000000000000000000000000007bffffffffffffffffffffffffffffffffffffffffffffffffffffffff1916827bffffffffffffffffffffffffffffffffffffffffffffffffffffffff191614806107fb57507f5b5e139f000000000000000000000000000000000000000000000000000000007bffffffffffffffffffffffffffffffffffffffffffffffffffffffff1916827bffffffffffffffffffffffffffffffffffffffffffffffffffffffff1916145b8061080b575061080a82612054565b5b9050919050565b600c5481565b60605f805461082690613b5d565b80601f016020809104026020016040519081016040528092919081815260200182805461085290613b5d565b801561089d5780601f106108745761010080835404028352916020019161089d565b820191905f5260205f20905b81548152906001019060200180831161088057829003601f168201915b5050505050905090565b5f6108b1826120bd565b506108bb82612143565b9050919050565b6108d482826108cf61217c565b612183565b5050565b5f805f60605f60095f8781526020019081526020015f206040518060800160405290815f820154815260200160018201548152602001600282015f9054906101000a900473ffffffffffffffffffffffffffffffffffffffff1673ffffffffffffffffffffffffffffffffffffffff1673ffffffffffffffffffffffffffffffffffffffff16815260200160038201805461097290613b5d565b80601f016020809104026020016040519081016040528092919081815260200182805461099e90613b5d565b80156109e95780601f106109c0576101008083540402835291602001916109e9565b820191905f5260205f20905b8154815290600101906020018083116109cc57829003601f168201915b5050505050815250509050805f01518160200151826040015183606001519450945094509450509193509193565b5f73ffffffffffffffffffffffffffffffffffffffff168273ffffffffffffffffffffffffffffffffffffffff1603610a87575f6040517f64a0ae92000000000000000000000000000000000000000000000000000000008152600401610a7e9190613158565b60405180910390fd5b5f610a9a8383610a9561217c565b612195565b90508373ffffffffffffffffffffffffffffffffffffffff168173ffffffffffffffffffffffffffffffffffffffff1614610b10578382826040517f64283d7b000000000000000000000000000000000000000000000000000000008152600401610b0793929190613b8d565b60405180910390fd5b50505050565b610b3083838360405180602001604052805f815250611b5e565b505050565b5f60085f8581526020019081526020015f205f015403610b8a576040517f08c379a0000000000000000000000000000000000000000000000000000000008152600401610b8190613c0c565b60405180910390fd5b60085f8481526020019081526020015f206006015f9054906101000a900460ff16610bea576040517f08c379a0000000000000000000000000000000000000000000000000000000008152600401610be190613c74565b60405180910390fd5b3373ffffffffffffffffffffffffffffffffffffffff1660075f60085f8781526020019081526020015f206001015481526020019081526020015f206001015f9054906101000a900473ffffffffffffffffffffffffffffffffffffffff1673ffffffffffffffffffffffffffffffffffffffff1614610c9f576040517f08c379a0000000000000000000000000000000000000000000000000000000008152600401610c9690613d02565b60405180910390fd5b600c5f815480929190610cb190613d4d565b91905055506040518060800160405280600c5481526020018481526020018373ffffffffffffffffffffffffffffffffffffffff1681526020018281525060095f600c5481526020019081526020015f205f820151815f0155602082015181600101556040820151816002015f6101000a81548173ffffffffffffffffffffffffffffffffffffffff021916908373ffffffffffffffffffffffffffffffffffffffff1602179055506060820151816003019081610d6f9190613f31565b50905050505050565b5f610d82826120bd565b9050919050565b5f8073ffffffffffffffffffffffffffffffffffffffff168273ffffffffffffffffffffffffffffffffffffffff1603610dfa575f6040517f89c62b64000000000000000000000000000000000000000000000000000000008152600401610df19190613158565b60405180910390fd5b60035f8373ffffffffffffffffffffffffffffffffffffffff1673ffffffffffffffffffffffffffffffffffffffff1681526020019081526020015f20549050919050565b610e476123a0565b610e505f612427565b565b6009602052805f5260405f205f91509050805f015490806001015490806002015f9054906101000a900473ffffffffffffffffffffffffffffffffffffffff1690806003018054610ea290613b5d565b80601f0160208091040260200160405190810160405280929190818152602001828054610ece90613b5d565b8015610f195780601f10610ef057610100808354040283529160200191610f19565b820191905f5260205f20905b815481529060010190602001808311610efc57829003601f168201915b5050505050905084565b5f60085f8381526020019081526020015f205f015403610f78576040517f08c379a0000000000000000000000000000000000000000000000000000000008152600401610f6f90613c0c565b60405180910390fd5b60085f8281526020019081526020015f2060050154341015610fcf576040517f08c379a0000000000000000000000000000000000000000000000000000000008152600401610fc69061404a565b60405180910390fd5b60085f8281526020019081526020015f206006015f9054906101000a900460ff1615611030576040517f08c379a0000000000000000000000000000000000000000000000000000000008152600401611027906140b2565b60405180910390fd5b5f60085f8381526020019081526020015f2090506001816006015f6101000a81548160ff02191690831515021790555061106a33836124ea565b5f60075f836001015481526020019081526020015f206001015f9054906101000a900473ffffffffffffffffffffffffffffffffffffffff1690508073ffffffffffffffffffffffffffffffffffffffff166108fc3490811502906040515f60405180830381858888f193505050501580156110e8573d5f803e3d5ffd5b50505050565b600b5481565b6007602052805f5260405f205f91509050805f015490806001015f9054906101000a900473ffffffffffffffffffffffffffffffffffffffff169080600201805461113e90613b5d565b80601f016020809104026020016040519081016040528092919081815260200182805461116a90613b5d565b80156111b55780601f1061118c576101008083540402835291602001916111b5565b820191905f5260205f20905b81548152906001019060200180831161119857829003601f168201915b5050505050908060030180546111ca90613b5d565b80601f01602080910402602001604051908101604052809291908181526020018280546111f690613b5d565b80156112415780601f1061121857610100808354040283529160200191611241565b820191905f5260205f20905b81548152906001019060200180831161122457829003601f168201915b5050505050905084565b5f60065f9054906101000a900473ffffffffffffffffffffffffffffffffffffffff16905090565b60605f600b5467ffffffffffffffff8111156112925761129161327b565b5b6040519080825280602002602001820160405280156112cb57816020015b6112b8612edc565b8152602001906001900390816112b05790505b5090505f600190505b600b5481116115b85760085f8281526020019081526020015f20604051806101200160405290815f82015481526020016001820154815260200160028201805461131d90613b5d565b80601f016020809104026020016040519081016040528092919081815260200182805461134990613b5d565b80156113945780601f1061136b57610100808354040283529160200191611394565b820191905f5260205f20905b81548152906001019060200180831161137757829003601f168201915b50505050508152602001600382015481526020016004820180546113b790613b5d565b80601f01602080910402602001604051908101604052809291908181526020018280546113e390613b5d565b801561142e5780601f106114055761010080835404028352916020019161142e565b820191905f5260205f20905b81548152906001019060200180831161141157829003601f168201915b5050505050815260200160058201548152602001600682015f9054906101000a900460ff1615151515815260200160078201805461146b90613b5d565b80601f016020809104026020016040519081016040528092919081815260200182805461149790613b5d565b80156114e25780601f106114b9576101008083540402835291602001916114e2565b820191905f5260205f20905b8154815290600101906020018083116114c557829003601f168201915b505050505081526020016008820180546114fb90613b5d565b80601f016020809104026020016040519081016040528092919081815260200182805461152790613b5d565b80156115725780601f1061154957610100808354040283529160200191611572565b820191905f5260205f20905b81548152906001019060200180831161155557829003601f168201915b5050505050815250508260018361158991906140d0565b8151811061159a57611599614103565b5b602002602001018190525080806115b090613d4d565b9150506112d4565b508091505090565b6060600180546115cf90613b5d565b80601f01602080910402602001604051908101604052809291908181526020018280546115fb90613b5d565b80156116465780601f1061161d57610100808354040283529160200191611646565b820191905f5260205f20905b81548152906001019060200180831161162957829003601f168201915b5050505050905090565b5f871180156116615750600a548711155b6116a0576040517f08c379a00000000000000000000000000000000000000000000000000000000081526004016116979061417a565b60405180910390fd5b3373ffffffffffffffffffffffffffffffffffffffff1660075f8981526020019081526020015f206001015f9054906101000a900473ffffffffffffffffffffffffffffffffffffffff1673ffffffffffffffffffffffffffffffffffffffff1614611741576040517f08c379a000000000000000000000000000000000000000000000000000000000815260040161173890614208565b60405180910390fd5b600b5f81548092919061175390613d4d565b9190505550604051806101200160405280600b5481526020018881526020018781526020018681526020018581526020018481526020015f151581526020018381526020018281525060085f600b5481526020019081526020015f205f820151815f01556020820151816001015560408201518160020190816117d69190613f31565b506060820151816003015560808201518160040190816117f69190613f31565b5060a0820151816005015560c0820151816006015f6101000a81548160ff02191690831515021790555060e08201518160070190816118359190613f31565b5061010082015181600801908161184c9190613f31565b5090505050505050505050565b61186b61186461217c565b8383612507565b5050565b5f8060605f60605f8060605f60085f8b81526020019081526020015f20604051806101200160405290815f8201548152602001600182015481526020016002820180546118bb90613b5d565b80601f01602080910402602001604051908101604052809291908181526020018280546118e790613b5d565b80156119325780601f1061190957610100808354040283529160200191611932565b820191905f5260205f20905b81548152906001019060200180831161191557829003601f168201915b505050505081526020016003820154815260200160048201805461195590613b5d565b80601f016020809104026020016040519081016040528092919081815260200182805461198190613b5d565b80156119cc5780601f106119a3576101008083540402835291602001916119cc565b820191905f5260205f20905b8154815290600101906020018083116119af57829003601f168201915b5050505050815260200160058201548152602001600682015f9054906101000a900460ff16151515158152602001600782018054611a0990613b5d565b80601f0160208091040260200160405190810160405280929190818152602001828054611a3590613b5d565b8015611a805780601f10611a5757610100808354040283529160200191611a80565b820191905f5260205f20905b815481529060010190602001808311611a6357829003601f168201915b50505050508152602001600882018054611a9990613b5d565b80601f0160208091040260200160405190810160405280929190818152602001828054611ac590613b5d565b8015611b105780601f10611ae757610100808354040283529160200191611b10565b820191905f5260205f20905b815481529060010190602001808311611af357829003601f168201915b5050505050815250509050805f015181602001518260400151836060015184608001518560a001518660c001518760e001519850985098509850985098509850985050919395975091939597565b611b69848484610a17565b611b7584848484612670565b50505050565b600a5481565b6060611b8c826120bd565b505f611b96612822565b90505f815111611bb45760405180602001604052805f815250611bdf565b80611bbe84612838565b604051602001611bcf929190614260565b6040516020818303038152906040525b915050919050565b5f60055f8473ffffffffffffffffffffffffffffffffffffffff1673ffffffffffffffffffffffffffffffffffffffff1681526020019081526020015f205f8373ffffffffffffffffffffffffffffffffffffffff1673ffffffffffffffffffffffffffffffffffffffff1681526020019081526020015f205f9054906101000a900460ff16905092915050565b611c7d6123a0565b600a5f815480929190611c8f90613d4d565b91905055506040518060800160405280600a5481526020018473ffffffffffffffffffffffffffffffffffffffff1681526020018381526020018281525060075f600a5481526020019081526020015f205f820151815f01556020820151816001015f6101000a81548173ffffffffffffffffffffffffffffffffffffffff021916908373ffffffffffffffffffffffffffffffffffffffff1602179055506040820151816002019081611d439190613f31565b506060820151816003019081611d599190613f31565b50905050505050565b6008602052805f5260405f205f91509050805f015490806001015490806002018054611d8d90613b5d565b80601f0160208091040260200160405190810160405280929190818152602001828054611db990613b5d565b8015611e045780601f10611ddb57610100808354040283529160200191611e04565b820191905f5260205f20905b815481529060010190602001808311611de757829003601f168201915b505050505090806003015490806004018054611e1f90613b5d565b80601f0160208091040260200160405190810160405280929190818152602001828054611e4b90613b5d565b8015611e965780601f10611e6d57610100808354040283529160200191611e96565b820191905f5260205f20905b815481529060010190602001808311611e7957829003601f168201915b505050505090806005015490806006015f9054906101000a900460ff1690806007018054611ec390613b5d565b80601f0160208091040260200160405190810160405280929190818152602001828054611eef90613b5d565b8015611f3a5780601f10611f1157610100808354040283529160200191611f3a565b820191905f5260205f20905b815481529060010190602001808311611f1d57829003601f168201915b505050505090806008018054611f4f90613b5d565b80601f0160208091040260200160405190810160405280929190818152602001828054611f7b90613b5d565b8015611fc65780601f10611f9d57610100808354040283529160200191611fc6565b820191905f5260205f20905b815481529060010190602001808311611fa957829003601f168201915b5050505050905089565b611fd86123a0565b5f73ffffffffffffffffffffffffffffffffffffffff168173ffffffffffffffffffffffffffffffffffffffff1603612048575f6040517f1e4fbdf700000000000000000000000000000000000000000000000000000000815260040161203f9190613158565b60405180910390fd5b61205181612427565b50565b5f7f01ffc9a7000000000000000000000000000000000000000000000000000000007bffffffffffffffffffffffffffffffffffffffffffffffffffffffff1916827bffffffffffffffffffffffffffffffffffffffffffffffffffffffff1916149050919050565b5f806120c883612902565b90505f73ffffffffffffffffffffffffffffffffffffffff168173ffffffffffffffffffffffffffffffffffffffff160361213a57826040517f7e2732890000000000000000000000000000000000000000000000000000000081526004016121319190613001565b60405180910390fd5b80915050919050565b5f60045f8381526020019081526020015f205f9054906101000a900473ffffffffffffffffffffffffffffffffffffffff169050919050565b5f33905090565b612190838383600161293b565b505050565b5f806121a084612902565b90505f73ffffffffffffffffffffffffffffffffffffffff168373ffffffffffffffffffffffffffffffffffffffff16146121e1576121e0818486612afa565b5b5f73ffffffffffffffffffffffffffffffffffffffff168173ffffffffffffffffffffffffffffffffffffffff161461226c576122205f855f8061293b565b600160035f8373ffffffffffffffffffffffffffffffffffffffff1673ffffffffffffffffffffffffffffffffffffffff1681526020019081526020015f205f82825403925050819055505b5f73ffffffffffffffffffffffffffffffffffffffff168573ffffffffffffffffffffffffffffffffffffffff16146122eb57600160035f8773ffffffffffffffffffffffffffffffffffffffff1673ffffffffffffffffffffffffffffffffffffffff1681526020019081526020015f205f82825401925050819055505b8460025f8681526020019081526020015f205f6101000a81548173ffffffffffffffffffffffffffffffffffffffff021916908373ffffffffffffffffffffffffffffffffffffffff160217905550838573ffffffffffffffffffffffffffffffffffffffff168273ffffffffffffffffffffffffffffffffffffffff167fddf252ad1be2c89b69c2b068fc378daa952ba7f163c4a11628f55a4df523b3ef60405160405180910390a4809150509392505050565b6123a861217c565b73ffffffffffffffffffffffffffffffffffffffff166123c661124b565b73ffffffffffffffffffffffffffffffffffffffff1614612425576123e961217c565b6040517f118cdaa700000000000000000000000000000000000000000000000000000000815260040161241c9190613158565b60405180910390fd5b565b5f60065f9054906101000a900473ffffffffffffffffffffffffffffffffffffffff1690508160065f6101000a81548173ffffffffffffffffffffffffffffffffffffffff021916908373ffffffffffffffffffffffffffffffffffffffff1602179055508173ffffffffffffffffffffffffffffffffffffffff168173ffffffffffffffffffffffffffffffffffffffff167f8be0079c531659141344cd1fd0a4f28419497f9722a3daafe3b4186f6b6457e060405160405180910390a35050565b612503828260405180602001604052805f815250612bbd565b5050565b5f73ffffffffffffffffffffffffffffffffffffffff168273ffffffffffffffffffffffffffffffffffffffff160361257757816040517f5b08ba1800000000000000000000000000000000000000000000000000000000815260040161256e9190613158565b60405180910390fd5b8060055f8573ffffffffffffffffffffffffffffffffffffffff1673ffffffffffffffffffffffffffffffffffffffff1681526020019081526020015f205f8473ffffffffffffffffffffffffffffffffffffffff1673ffffffffffffffffffffffffffffffffffffffff1681526020019081526020015f205f6101000a81548160ff0219169083151502179055508173ffffffffffffffffffffffffffffffffffffffff168373ffffffffffffffffffffffffffffffffffffffff167f17307eab39ab6107e8899845ad3d59bd9653f200f220920489ca2b5937696c31836040516126639190612fd0565b60405180910390a3505050565b5f8373ffffffffffffffffffffffffffffffffffffffff163b111561281c578273ffffffffffffffffffffffffffffffffffffffff1663150b7a026126b361217c565b8685856040518563ffffffff1660e01b81526004016126d594939291906142d5565b6020604051808303815f875af192505050801561271057506040513d601f19601f8201168201806040525081019061270d9190614333565b60015b612791573d805f811461273e576040519150601f19603f3d011682016040523d82523d5f602084013e612743565b606091505b505f81510361278957836040517f64a0ae920000000000000000000000000000000000000000000000000000000081526004016127809190613158565b60405180910390fd5b805181602001fd5b63150b7a0260e01b7bffffffffffffffffffffffffffffffffffffffffffffffffffffffff1916817bffffffffffffffffffffffffffffffffffffffffffffffffffffffff19161461281a57836040517f64a0ae920000000000000000000000000000000000000000000000000000000081526004016128119190613158565b60405180910390fd5b505b50505050565b606060405180602001604052805f815250905090565b60605f600161284684612bd8565b0190505f8167ffffffffffffffff8111156128645761286361327b565b5b6040519080825280601f01601f1916602001820160405280156128965781602001600182028036833780820191505090505b5090505f82602001820190505b6001156128f7578080600190039150507f3031323334353637383961626364656600000000000000000000000000000000600a86061a8153600a85816128ec576128eb61435e565b5b0494505f85036128a3575b819350505050919050565b5f60025f8381526020019081526020015f205f9054906101000a900473ffffffffffffffffffffffffffffffffffffffff169050919050565b808061297357505f73ffffffffffffffffffffffffffffffffffffffff168273ffffffffffffffffffffffffffffffffffffffff1614155b15612aa5575f612982846120bd565b90505f73ffffffffffffffffffffffffffffffffffffffff168373ffffffffffffffffffffffffffffffffffffffff16141580156129ec57508273ffffffffffffffffffffffffffffffffffffffff168173ffffffffffffffffffffffffffffffffffffffff1614155b80156129ff57506129fd8184611be7565b155b15612a4157826040517fa9fbf51f000000000000000000000000000000000000000000000000000000008152600401612a389190613158565b60405180910390fd5b8115612aa357838573ffffffffffffffffffffffffffffffffffffffff168273ffffffffffffffffffffffffffffffffffffffff167f8c5be1e5ebec7d5bd14f71427d1e84f3dd0314c0f7b2291e5b200ac8c7c3b92560405160405180910390a45b505b8360045f8581526020019081526020015f205f6101000a81548173ffffffffffffffffffffffffffffffffffffffff021916908373ffffffffffffffffffffffffffffffffffffffff16021790555050505050565b612b05838383612d29565b612bb8575f73ffffffffffffffffffffffffffffffffffffffff168373ffffffffffffffffffffffffffffffffffffffff1603612b7957806040517f7e273289000000000000000000000000000000000000000000000000000000008152600401612b709190613001565b60405180910390fd5b81816040517f177e802f000000000000000000000000000000000000000000000000000000008152600401612baf92919061438b565b60405180910390fd5b505050565b612bc78383612de9565b612bd35f848484612670565b505050565b5f805f90507a184f03e93ff9f4daa797ed6e38ed64bf6a1f0100000000000000008310612c34577a184f03e93ff9f4daa797ed6e38ed64bf6a1f0100000000000000008381612c2a57612c2961435e565b5b0492506040810190505b6d04ee2d6d415b85acef81000000008310612c71576d04ee2d6d415b85acef81000000008381612c6757612c6661435e565b5b0492506020810190505b662386f26fc100008310612ca057662386f26fc100008381612c9657612c9561435e565b5b0492506010810190505b6305f5e1008310612cc9576305f5e1008381612cbf57612cbe61435e565b5b0492506008810190505b6127108310612cee576127108381612ce457612ce361435e565b5b0492506004810190505b60648310612d115760648381612d0757612d0661435e565b5b0492506002810190505b600a8310612d20576001810190505b80915050919050565b5f8073ffffffffffffffffffffffffffffffffffffffff168373ffffffffffffffffffffffffffffffffffffffff1614158015612de057508273ffffffffffffffffffffffffffffffffffffffff168473ffffffffffffffffffffffffffffffffffffffff161480612da15750612da08484611be7565b5b80612ddf57508273ffffffffffffffffffffffffffffffffffffffff16612dc783612143565b73ffffffffffffffffffffffffffffffffffffffff16145b5b90509392505050565b5f73ffffffffffffffffffffffffffffffffffffffff168273ffffffffffffffffffffffffffffffffffffffff1603612e59575f6040517f64a0ae92000000000000000000000000000000000000000000000000000000008152600401612e509190613158565b60405180910390fd5b5f612e6583835f612195565b90505f73ffffffffffffffffffffffffffffffffffffffff168173ffffffffffffffffffffffffffffffffffffffff1614612ed7575f6040517f73c6ac6e000000000000000000000000000000000000000000000000000000008152600401612ece9190613158565b60405180910390fd5b505050565b6040518061012001604052805f81526020015f8152602001606081526020015f8152602001606081526020015f81526020015f1515815260200160608152602001606081525090565b5f604051905090565b5f80fd5b5f80fd5b5f7fffffffff0000000000000000000000000000000000000000000000000000000082169050919050565b612f6a81612f36565b8114612f74575f80fd5b50565b5f81359050612f8581612f61565b92915050565b5f60208284031215612fa057612f9f612f2e565b5b5f612fad84828501612f77565b91505092915050565b5f8115159050919050565b612fca81612fb6565b82525050565b5f602082019050612fe35f830184612fc1565b92915050565b5f819050919050565b612ffb81612fe9565b82525050565b5f6020820190506130145f830184612ff2565b92915050565b5f81519050919050565b5f82825260208201905092915050565b5f5b83811015613051578082015181840152602081019050613036565b5f8484015250505050565b5f601f19601f8301169050919050565b5f6130768261301a565b6130808185613024565b9350613090818560208601613034565b6130998161305c565b840191505092915050565b5f6020820190508181035f8301526130bc818461306c565b905092915050565b6130cd81612fe9565b81146130d7575f80fd5b50565b5f813590506130e8816130c4565b92915050565b5f6020828403121561310357613102612f2e565b5b5f613110848285016130da565b91505092915050565b5f73ffffffffffffffffffffffffffffffffffffffff82169050919050565b5f61314282613119565b9050919050565b61315281613138565b82525050565b5f60208201905061316b5f830184613149565b92915050565b61317a81613138565b8114613184575f80fd5b50565b5f8135905061319581613171565b92915050565b5f80604083850312156131b1576131b0612f2e565b5b5f6131be85828601613187565b92505060206131cf858286016130da565b9150509250929050565b5f6080820190506131ec5f830187612ff2565b6131f96020830186612ff2565b6132066040830185613149565b8181036060830152613218818461306c565b905095945050505050565b5f805f6060848603121561323a57613239612f2e565b5b5f61324786828701613187565b935050602061325886828701613187565b9250506040613269868287016130da565b9150509250925092565b5f80fd5b5f80fd5b7f4e487b71000000000000000000000000000000000000000000000000000000005f52604160045260245ffd5b6132b18261305c565b810181811067ffffffffffffffff821117156132d0576132cf61327b565b5b80604052505050565b5f6132e2612f25565b90506132ee82826132a8565b919050565b5f67ffffffffffffffff82111561330d5761330c61327b565b5b6133168261305c565b9050602081019050919050565b828183375f83830152505050565b5f61334361333e846132f3565b6132d9565b90508281526020810184848401111561335f5761335e613277565b5b61336a848285613323565b509392505050565b5f82601f83011261338657613385613273565b5b8135613396848260208601613331565b91505092915050565b5f805f606084860312156133b6576133b5612f2e565b5b5f6133c3868287016130da565b93505060206133d486828701613187565b925050604084013567ffffffffffffffff8111156133f5576133f4612f32565b5b61340186828701613372565b9150509250925092565b5f602082840312156134205761341f612f2e565b5b5f61342d84828501613187565b91505092915050565b5f6080820190506134495f830187612ff2565b6134566020830186613149565b8181036040830152613468818561306c565b9050818103606083015261347c818461306c565b905095945050505050565b5f81519050919050565b5f82825260208201905092915050565b5f819050602082019050919050565b6134b981612fe9565b82525050565b5f82825260208201905092915050565b5f6134d98261301a565b6134e381856134bf565b93506134f3818560208601613034565b6134fc8161305c565b840191505092915050565b61351081612fb6565b82525050565b5f61012083015f83015161352c5f8601826134b0565b50602083015161353f60208601826134b0565b506040830151848203604086015261355782826134cf565b915050606083015161356c60608601826134b0565b506080830151848203608086015261358482826134cf565b91505060a083015161359960a08601826134b0565b5060c08301516135ac60c0860182613507565b5060e083015184820360e08601526135c482826134cf565b9150506101008301518482036101008601526135e082826134cf565b9150508091505092915050565b5f6135f88383613516565b905092915050565b5f602082019050919050565b5f61361682613487565b6136208185613491565b935083602082028501613632856134a1565b805f5b8581101561366d578484038952815161364e85826135ed565b945061365983613600565b925060208a01995050600181019050613635565b50829750879550505050505092915050565b5f6020820190508181035f830152613697818461360c565b905092915050565b5f805f805f805f60e0888a0312156136ba576136b9612f2e565b5b5f6136c78a828b016130da565b975050602088013567ffffffffffffffff8111156136e8576136e7612f32565b5b6136f48a828b01613372565b96505060406137058a828b016130da565b955050606088013567ffffffffffffffff81111561372657613725612f32565b5b6137328a828b01613372565b94505060806137438a828b016130da565b93505060a088013567ffffffffffffffff81111561376457613763612f32565b5b6137708a828b01613372565b92505060c088013567ffffffffffffffff81111561379157613790612f32565b5b61379d8a828b01613372565b91505092959891949750929550565b6137b581612fb6565b81146137bf575f80fd5b50565b5f813590506137d0816137ac565b92915050565b5f80604083850312156137ec576137eb612f2e565b5b5f6137f985828601613187565b925050602061380a858286016137c2565b9150509250929050565b5f610100820190506138285f83018b612ff2565b613835602083018a612ff2565b8181036040830152613847818961306c565b90506138566060830188612ff2565b8181036080830152613868818761306c565b905061387760a0830186612ff2565b61388460c0830185612fc1565b81810360e0830152613896818461306c565b90509998505050505050505050565b5f67ffffffffffffffff8211156138bf576138be61327b565b5b6138c88261305c565b9050602081019050919050565b5f6138e76138e2846138a5565b6132d9565b90508281526020810184848401111561390357613902613277565b5b61390e848285613323565b509392505050565b5f82601f83011261392a57613929613273565b5b813561393a8482602086016138d5565b91505092915050565b5f805f806080858703121561395b5761395a612f2e565b5b5f61396887828801613187565b945050602061397987828801613187565b935050604061398a878288016130da565b925050606085013567ffffffffffffffff8111156139ab576139aa612f32565b5b6139b787828801613916565b91505092959194509250565b5f80604083850312156139d9576139d8612f2e565b5b5f6139e685828601613187565b92505060206139f785828601613187565b9150509250929050565b5f805f60608486031215613a1857613a17612f2e565b5b5f613a2586828701613187565b935050602084013567ffffffffffffffff811115613a4657613a45612f32565b5b613a5286828701613372565b925050604084013567ffffffffffffffff811115613a7357613a72612f32565b5b613a7f86828701613372565b9150509250925092565b5f61012082019050613a9d5f83018c612ff2565b613aaa602083018b612ff2565b8181036040830152613abc818a61306c565b9050613acb6060830189612ff2565b8181036080830152613add818861306c565b9050613aec60a0830187612ff2565b613af960c0830186612fc1565b81810360e0830152613b0b818561306c565b9050818103610100830152613b20818461306c565b90509a9950505050505050505050565b7f4e487b71000000000000000000000000000000000000000000000000000000005f52602260045260245ffd5b5f6002820490506001821680613b7457607f821691505b602082108103613b8757613b86613b30565b5b50919050565b5f606082019050613ba05f830186613149565b613bad6020830185612ff2565b613bba6040830184613149565b949350505050565b7f4c6f7420646f6573206e6f7420657869737400000000000000000000000000005f82015250565b5f613bf6601283613024565b9150613c0182613bc2565b602082019050919050565b5f6020820190508181035f830152613c2381613bea565b9050919050565b7f4c6f74206973206e6f7420736f6c6420796574000000000000000000000000005f82015250565b5f613c5e601383613024565b9150613c6982613c2a565b602082019050919050565b5f6020820190508181035f830152613c8b81613c52565b9050919050565b7f4f6e6c7920746865206661726d65722063616e20616464207472616e73706f725f8201527f746174696f6e2064657461696c73000000000000000000000000000000000000602082015250565b5f613cec602e83613024565b9150613cf782613c92565b604082019050919050565b5f6020820190508181035f830152613d1981613ce0565b9050919050565b7f4e487b71000000000000000000000000000000000000000000000000000000005f52601160045260245ffd5b5f613d5782612fe9565b91507fffffffffffffffffffffffffffffffffffffffffffffffffffffffffffffffff8203613d8957613d88613d20565b5b600182019050919050565b5f819050815f5260205f209050919050565b5f6020601f8301049050919050565b5f82821b905092915050565b5f60088302613df07fffffffffffffffffffffffffffffffffffffffffffffffffffffffffffffffff82613db5565b613dfa8683613db5565b95508019841693508086168417925050509392505050565b5f819050919050565b5f613e35613e30613e2b84612fe9565b613e12565b612fe9565b9050919050565b5f819050919050565b613e4e83613e1b565b613e62613e5a82613e3c565b848454613dc1565b825550505050565b5f90565b613e76613e6a565b613e81818484613e45565b505050565b5b81811015613ea457613e995f82613e6e565b600181019050613e87565b5050565b601f821115613ee957613eba81613d94565b613ec384613da6565b81016020851015613ed2578190505b613ee6613ede85613da6565b830182613e86565b50505b505050565b5f82821c905092915050565b5f613f095f1984600802613eee565b1980831691505092915050565b5f613f218383613efa565b9150826002028217905092915050565b613f3a8261301a565b67ffffffffffffffff811115613f5357613f5261327b565b5b613f5d8254613b5d565b613f68828285613ea8565b5f60209050601f831160018114613f99575f8415613f87578287015190505b613f918582613f16565b865550613ff8565b601f198416613fa786613d94565b5f5b82811015613fce57848901518255600182019150602085019450602081019050613fa9565b86831015613feb5784890151613fe7601f891682613efa565b8355505b6001600288020188555050505b505050505050565b7f496e73756666696369656e742066756e647300000000000000000000000000005f82015250565b5f614034601283613024565b915061403f82614000565b602082019050919050565b5f6020820190508181035f83015261406181614028565b9050919050565b7f4c6f7420616c726561647920736f6c64000000000000000000000000000000005f82015250565b5f61409c601083613024565b91506140a782614068565b602082019050919050565b5f6020820190508181035f8301526140c981614090565b9050919050565b5f6140da82612fe9565b91506140e583612fe9565b92508282039050818111156140fd576140fc613d20565b5b92915050565b7f4e487b71000000000000000000000000000000000000000000000000000000005f52603260045260245ffd5b7f496e76616c6964206661726d65722049440000000000000000000000000000005f82015250565b5f614164601183613024565b915061416f82614130565b602082019050919050565b5f6020820190508181035f83015261419181614158565b9050919050565b7f4f6e6c7920746865206661726d65722063616e20616464207468656972206c6f5f8201527f7400000000000000000000000000000000000000000000000000000000000000602082015250565b5f6141f2602183613024565b91506141fd82614198565b604082019050919050565b5f6020820190508181035f83015261421f816141e6565b9050919050565b5f81905092915050565b5f61423a8261301a565b6142448185614226565b9350614254818560208601613034565b80840191505092915050565b5f61426b8285614230565b91506142778284614230565b91508190509392505050565b5f81519050919050565b5f82825260208201905092915050565b5f6142a782614283565b6142b1818561428d565b93506142c1818560208601613034565b6142ca8161305c565b840191505092915050565b5f6080820190506142e85f830187613149565b6142f56020830186613149565b6143026040830185612ff2565b8181036060830152614314818461429d565b905095945050505050565b5f8151905061432d81612f61565b92915050565b5f6020828403121561434857614347612f2e565b5b5f6143558482850161431f565b91505092915050565b7f4e487b71000000000000000000000000000000000000000000000000000000005f52601260045260245ffd5b5f60408201905061439e5f830185613149565b6143ab6020830184612ff2565b939250505056fea264697066735822122080172dc16339e2e588ace2fc5821121eed59bbd502681f49dc3df28132efff4764736f6c63430008150033",
  "immutableReferences": {},
  "source": "// SPDX-License-Identifier: MIT\r\npragma solidity ^0.8.2;\r\n\r\nimport \"@openzeppelin/contracts/token/ERC721/ERC721.sol\";\r\nimport \"@openzeppelin/contracts/access/Ownable.sol\";\r\n\r\ncontract AgriNFT is ERC721, Ownable {\r\n    struct Farmer {\r\n        uint id;\r\n        address addr;\r\n        string name;\r\n        string location;\r\n    }\r\n\r\n    struct Lot {\r\n        uint id;\r\n        uint farmerId;\r\n        string cropType;\r\n        uint quantity;\r\n        string location;\r\n        uint256 price;\r\n        bool isSold;\r\n        string grade;\r\n        string imgURL;\r\n    }\r\n\r\n    struct Transportation {\r\n        uint id;\r\n        uint lotId;\r\n        address transporter;\r\n        string transportDetails;\r\n    }\r\n\r\n    mapping(uint => Farmer) public farmers;\r\n    mapping(uint => Lot) public lots;\r\n    mapping(uint => Transportation) public transportations;\r\n    uint public farmerCount;\r\n    uint public lotCount;\r\n    uint public transportationCount;\r\n\r\n   constructor() ERC721(\"AgricultureNFT\", \"AGNFT\") Ownable(msg.sender) {}\r\n\r\n    function addFarmer(address _addr, string memory _name, string memory _location) public onlyOwner {\r\n        farmerCount++;\r\n        farmers[farmerCount] = Farmer(farmerCount, _addr, _name, _location);\r\n    }\r\n\r\n    function addLot(uint _farmerId, string memory _cropType, uint _quantity, string memory _location, uint256 _price, string memory _grade,string memory _imgURL) public {\r\n        require(_farmerId > 0 && _farmerId <= farmerCount, \"Invalid farmer ID\");\r\n        require(farmers[_farmerId].addr == msg.sender, \"Only the farmer can add their lot\");\r\n        lotCount++;\r\n        lots[lotCount] = Lot(lotCount, _farmerId, _cropType, _quantity, _location, _price, false, _grade,_imgURL);\r\n    }\r\n\r\nfunction addTransportation(uint _lotId, address _transporter, string memory _transportDetails) public {\r\n        require(lots[_lotId].id != 0, \"Lot does not exist\");\r\n        require(lots[_lotId].isSold, \"Lot is not sold yet\");\r\n        require(farmers[lots[_lotId].farmerId].addr == msg.sender, \"Only the farmer can add transportation details\");\r\n\r\n        transportationCount++;\r\n        transportations[transportationCount] = Transportation(transportationCount, _lotId, _transporter, _transportDetails);\r\n    }\r\n\r\n    function buyLot(uint _lotId) public payable {\r\n        require(lots[_lotId].id != 0, \"Lot does not exist\");\r\n        require(msg.value >= lots[_lotId].price, \"Insufficient funds\");\r\n        require(!lots[_lotId].isSold, \"Lot already sold\");\r\n\r\n        Lot storage lot = lots[_lotId];\r\n        lot.isSold = true;\r\n        _safeMint(msg.sender, _lotId);\r\n\r\n        // Transfer the funds to the farmer\r\n        address farmerAddr = farmers[lot.farmerId].addr;\r\n        payable(farmerAddr).transfer(msg.value);\r\n    }\r\n\r\n    function getLot(uint _lotId) public view returns (uint, uint, string memory, uint, string memory, uint256, bool, string memory) {\r\n        Lot memory lot = lots[_lotId];\r\n        return (lot.id, lot.farmerId, lot.cropType, lot.quantity, lot.location, lot.price, lot.isSold, lot.grade);\r\n    }\r\n\r\n    function getTransportation(uint _transportationId) public view returns (uint, uint, address, string memory) {\r\n        Transportation memory transportation = transportations[_transportationId];\r\n        return (transportation.id, transportation.lotId, transportation.transporter, transportation.transportDetails);\r\n    }\r\n\r\n    function getAllLots() public view returns (Lot[] memory) {\r\n        Lot[] memory allLots = new Lot[](lotCount);\r\n        for (uint i = 1; i <= lotCount; i++) {\r\n            allLots[i - 1] = lots[i];\r\n        }\r\n        return allLots;\r\n    }\r\n}",
  "sourcePath": "D:\\Agriculture\\myapp\\contracts\\AgriNFT.sol",
  "compiler": {
    "name": "solc",
    "version": "0.8.21+commit.d9974bed.Emscripten.clang"
  },
  "schemaVersion": "3.4.16",
  "updatedAt": "2024-05-24T13:52:26.460Z",
  "devdoc": {
    "errors": {
      "ERC721IncorrectOwner(address,uint256,address)": [
        {
          "details": "Indicates an error related to the ownership over a particular token. Used in transfers.",
          "params": {
            "owner": "Address of the current owner of a token.",
            "sender": "Address whose tokens are being transferred.",
            "tokenId": "Identifier number of a token."
          }
        }
      ],
      "ERC721InsufficientApproval(address,uint256)": [
        {
          "details": "Indicates a failure with the `operator`s approval. Used in transfers.",
          "params": {
            "operator": "Address that may be allowed to operate on tokens without being their owner.",
            "tokenId": "Identifier number of a token."
          }
        }
      ],
      "ERC721InvalidApprover(address)": [
        {
          "details": "Indicates a failure with the `approver` of a token to be approved. Used in approvals.",
          "params": {
            "approver": "Address initiating an approval operation."
          }
        }
      ],
      "ERC721InvalidOperator(address)": [
        {
          "details": "Indicates a failure with the `operator` to be approved. Used in approvals.",
          "params": {
            "operator": "Address that may be allowed to operate on tokens without being their owner."
          }
        }
      ],
      "ERC721InvalidOwner(address)": [
        {
          "details": "Indicates that an address can't be an owner. For example, `address(0)` is a forbidden owner in EIP-20. Used in balance queries.",
          "params": {
            "owner": "Address of the current owner of a token."
          }
        }
      ],
      "ERC721InvalidReceiver(address)": [
        {
          "details": "Indicates a failure with the token `receiver`. Used in transfers.",
          "params": {
            "receiver": "Address to which tokens are being transferred."
          }
        }
      ],
      "ERC721InvalidSender(address)": [
        {
          "details": "Indicates a failure with the token `sender`. Used in transfers.",
          "params": {
            "sender": "Address whose tokens are being transferred."
          }
        }
      ],
      "ERC721NonexistentToken(uint256)": [
        {
          "details": "Indicates a `tokenId` whose `owner` is the zero address.",
          "params": {
            "tokenId": "Identifier number of a token."
          }
        }
      ],
      "OwnableInvalidOwner(address)": [
        {
          "details": "The owner is not a valid owner account. (eg. `address(0)`)"
        }
      ],
      "OwnableUnauthorizedAccount(address)": [
        {
          "details": "The caller account is not authorized to perform an operation."
        }
      ]
    },
    "events": {
      "Approval(address,address,uint256)": {
        "details": "Emitted when `owner` enables `approved` to manage the `tokenId` token."
      },
      "ApprovalForAll(address,address,bool)": {
        "details": "Emitted when `owner` enables or disables (`approved`) `operator` to manage all of its assets."
      },
      "Transfer(address,address,uint256)": {
        "details": "Emitted when `tokenId` token is transferred from `from` to `to`."
      }
    },
    "kind": "dev",
    "methods": {
      "approve(address,uint256)": {
        "details": "See {IERC721-approve}."
      },
      "balanceOf(address)": {
        "details": "See {IERC721-balanceOf}."
      },
      "getApproved(uint256)": {
        "details": "See {IERC721-getApproved}."
      },
      "isApprovedForAll(address,address)": {
        "details": "See {IERC721-isApprovedForAll}."
      },
      "name()": {
        "details": "See {IERC721Metadata-name}."
      },
      "owner()": {
        "details": "Returns the address of the current owner."
      },
      "ownerOf(uint256)": {
        "details": "See {IERC721-ownerOf}."
      },
      "renounceOwnership()": {
        "details": "Leaves the contract without owner. It will not be possible to call `onlyOwner` functions. Can only be called by the current owner. NOTE: Renouncing ownership will leave the contract without an owner, thereby disabling any functionality that is only available to the owner."
      },
      "safeTransferFrom(address,address,uint256)": {
        "details": "See {IERC721-safeTransferFrom}."
      },
      "safeTransferFrom(address,address,uint256,bytes)": {
        "details": "See {IERC721-safeTransferFrom}."
      },
      "setApprovalForAll(address,bool)": {
        "details": "See {IERC721-setApprovalForAll}."
      },
      "supportsInterface(bytes4)": {
        "details": "See {IERC165-supportsInterface}."
      },
      "symbol()": {
        "details": "See {IERC721Metadata-symbol}."
      },
      "tokenURI(uint256)": {
        "details": "See {IERC721Metadata-tokenURI}."
      },
      "transferFrom(address,address,uint256)": {
        "details": "See {IERC721-transferFrom}."
      },
      "transferOwnership(address)": {
        "details": "Transfers ownership of the contract to a new account (`newOwner`). Can only be called by the current owner."
      }
    },
    "version": 1
  },
  "userdoc": {
    "kind": "user",
    "methods": {},
    "version": 1
  }
}